:020000040000FA
:10000000F0F0F0F0F0F0F0F0F0F0F0F0F0F0F0F0F0
:10001000FFFFFFFFFFFFFFFFFFFFFFFFFFFFFFFFF0
:10002000F3F3F3F3F3F3F3F3F3F3F3F3F3F3F3F3A0
:10003000F5F5F5F5F5F5F5F5F5F5F5F5F5F5F5F570
:10004000F1F1F1F1F1F1F1F1F1F1F1F1F1F1F1F1A0
:10005000F6F6F6F6F6F6F6F6F6F6F6F6F6F6F6F640
:10006000F2F2F2F2F2F2F2F2F2F2F2F2F2F2F2F270
:10007000F4F4F4F4F4F4F4F4F4F4F4F4F4F4F4F440
:10008000F0F0F0F0F0F0F0F0F0F0F0F0F0F0F0F070
:10009000FFFFFFFFFFFFFFFFFFFFFFFFFFFFFFFF70
:1000A000F3FFF3F3F3FFF3F3F3FFFFFFF3F3F3FFD8
:1000B000F5F5F5FFF5F5F5F5F5F5F5F5F5FFFFFFC8
:1000C000FFFFF1F1FFF1F1F1F1F1F1FFFFFFF1F1CC
:1000D000FFF6F6F6FFF6F6FFF6F6F6FFF6F6F6FF93
:1000E000FFFFF2F2F2FFFFFFFFFFF2F2FFFFFFFF61
:1000F000FFF4F4F4F4F4F4F4F4F4F4FFFFFFF4F494
:10010000F0F0F0F0F0F0F0F0F0F0F0F0F0F0F0F0EF
:10011000FFFFFFFFFFFFFFFFFFFFFFFFFFFFFFFFEF
:10012000F3FFF3F3F3FFF3F3F3FFFFFFF3F3F3FF57
:10013000F5F5F5FFF5F5F5F5F5F5F5F5F5FFFFFF47
:10014000FFFFF1F1FFF1F1F1F1F1F1FFFFFFF1F14B
:10015000FFF6F6F6FFF6F6FFF6F6F6FFF6F6F6FF12
:10016000FFFFF2F2F2FFFFFFFFFFF2F2FFFFFFFFE0
:10017000FFF4F4F4F4F4F4F4F4F4F4FFFFFFF4F413
:10018000F0F0F0F0F0F0F0F0F0F0F0F0F0F0F0F06F
:10019000FFFFFFFFFFFFFFFFFFFFFFFFFFFFFFFF6F
:1001A000F3FFF3F3F3FFF3F3FFF3F3F3FFF3F3FFE3
:1001B000F5F5F5FFF5F5F5F5F5F5F5F5F5F5F5F5E5
:1001C000F1FFF1F1FFF1F1F1F1F1F1F1FFF1F1F1F5
:1001D000FFF6F6F6FFF6F6FFF6F6FFF6F6F6FFF692
:1001E000F2F2FFF2F2FFF2F2F2F2F2F2F2F2FFF2C8
:1001F000F4F4F4F4F4F4F4F4F4F4FFF4F4F4FFF4A9
:10020000F0F0F0F0F0F0F0F0F0F0F0F0F0F0F0F0EE
:10021000FFFFFFFFFFFFFFFFFFFFFFFFFFFFFFFFEE
:10022000F3FFF3F3F3FFF3F3FFF3F3F3FFF3F3FF62
:10023000F5F5F5FFF5F5F5F5F5F5F5F5F5F5F5F564
:10024000F1FFF1F1FFF1F1F1F1F1F1F1FFF1F1F174
:10025000FFF6F6F6FFF6F6FFF6F6FFF6F6F6FFF611
:10026000F2F2FFF2F2FFF2F2F2F2F2F2F2F2FFF247
:10027000F4F4F4F4F4F4F4F4F4F4FFF4F4F4FFF428
:10028000F0F0F0F0F0F0F0F0F0F0F0F0F0F0F0F06E
:10029000FFFFFFFFFFFFFFFFFFFFFFFFFFFFFFFF6E
:1002A000F3FFF3F3F3FFF3F3FFF3F3F3F3F3F3FFEE
:1002B000F5F5F5FFF5F5F5F5F5F5F5F5F5F5F5F5E4
:1002C000FFF1F1F1FFF1F1F1F1F1F1F1FFF1F1F1F4
:1002D000FFFFF6F6FFF6F6FFF6FFF6F6F6F6FFF688
:1002E000F2F2F2F2F2FFF2F2F2F2F2F2F2F2FFF2D4
:1002F000F4F4F4F4F4F4F4F4F4F4F4F4F4F4FFF4B3
:10030000F0F0F0F0F0F0F0F0F0F0F0F0F0F0F0F0ED
:10031000FFFFFFFFFFFFFFFFFFFFFFFFFFFFFFFFED
:10032000F3FFF3F3F3FFF3F3FFF3F3F3F3F3F3FF6D
:10033000F5F5F5FFF5F5F5F5F5F5F5F5F5F5F5F563
:10034000FFF1F1F1FFF1F1F1F1F1F1F1FFF1F1F173
:10035000FFFFF6F6FFF6F6FFF6FFF6F6F6F6FFF607
:10036000F2F2F2F2F2FFF2F2F2F2F2F2F2F2FFF253
:10037000F4F4F4F4F4F4F4F4F4F4F4F4F4F4FFF432
:10038000F0F0F0F0F0F0F0F0F0F0F0F0F0F0F0F06D
:10039000FFFFFFFFFFFFFFFFFFFFFFFFFFFFFFFF6D
:1003A000F3FFFFFFFFFFF3F3F3FFFFFFF3F3F3FFB1
:1003B000F5F5F5FFF5F5FFFFFFFFFFF5F5F5F5FFA7
:1003C000F1F1F1F1FFF1F1F1F1F1F1F1FFF1F1F101
:1003D000FFF6FFF6FFF6F6FFFFF6F6F6F6F6F6FF87
:1003E000FFFFF2F2F2FFFFFFFFF2F2F2F2F2FFF292
:1003F000F4F4F4F4F4F4F4F4F4F4F4F4F4FFF4F4B2
:10040000F0F0F0F0F0F0F0F0F0F0F0F0F0F0F0F0EC
:10041000FFFFFFFFFFFFFFFFFFFFFFFFFFFFFFFFEC
:10042000F3FFFFFFFFFFF3F3F3FFFFFFF3F3F3FF30
:10043000F5F5F5FFF5F5FFFFFFFFFFF5F5F5F5FF26
:10044000F1F1F1F1FFF1F1F1F1F1F1F1FFF1F1F180
:10045000FFF6FFF6FFF6F6FFFFF6F6F6F6F6F6FF06
:10046000FFFFF2F2F2FFFFFFFFF2F2F2F2F2FFF211
:10047000F4F4F4F4F4F4F4F4F4F4F4F4F4FFF4F431
:10048000F0F0F0F0F0F0F0F0F0F0F0F0F0F0F0F06C
:10049000FFFFFFFFFFFFFFFFFFFFFFFFFFFFFFFF6C
:1004A000F3FFF3F3F3FFF3F3F3F3F3F3FFF3F3FFEC
:1004B000F5F5F5FFF5F5F5F5F5F5F5F5F5F5FFF5D8
:1004C000F1F1F1F1FFF1F1F1F1F1F1F1FFF1F1F100
:1004D000FFF6F6FFFFF6F6FFF6FFF6F6F6F6F6F68F
:1004E000F2F2FFF2F2FFF2F2F2F2F2F2F2F2FFF2C5
:1004F000F4F4F4F4F4F4F4F4F4F4F4F4FFF4F4F4B1
:10050000F0F0F0F0F0F0F0F0F0F0F0F0F0F0F0F0EB
:10051000FFFFFFFFFFFFFFFFFFFFFFFFFFFFFFFFEB
:10052000F3FFF3F3F3FFF3F3F3F3F3F3FFF3F3FF6B
:10053000F5F5F5FFF5F5F5F5F5F5F5F5F5F5FFF557
:10054000F1F1F1F1FFF1F1F1F1F1F1F1FFF1F1F17F
:10055000FFF6F6FFFFF6F6FFF6FFF6F6F6F6F6F60E
:10056000F2F2FFF2F2FFF2F2F2F2F2F2F2F2FFF244
:10057000F4F4F4F4F4F4F4F4F4F4F4F4FFF4F4F430
:10058000F0F0F0F0F0F0F0F0F0F0F0F0F0F0F0F06B
:10059000FFFFFFFFFFFFFFFFFFFFFFFFFFFFFFFF6B
:1005A000F3FFF3F3F3FFF3F3FFF3F3F3FFF3F3F3EB
:1005B000FFF5FFF5F5F5F5F5F5F5F5F5F5F5FFF5CD
:1005C000F1F1F1F1FFF1F1F1F1F1F1F1FFF1F1F1FF
:1005D000FFF6F6F6FFF6F6FFF6F6FFF6F6F6FFF68E
:1005E000F2F2FFF2F2FFF2F2F2F2F2F2F2F2FFF2C4
:1005F000F4F4F4F4F4F4F4F4F4F4F4FFF4F4F4F4B0
:10060000F0F0F0F0F0F0F0F0F0F0F0F0F0F0F0F0EA
:10061000FFFFFFFFFFFFFFFFFFFFFFFFFFFFFFFFEA
:10062000F3FFF3F3F3FFF3F3FFF3F3F3FFF3F3F36A
:10063000FFF5FFF5F5F5F5F5F5F5F5F5F5F5FFF54C
:10064000F1F1F1F1FFF1F1F1F1F1F1F1FFF1F1F17E
:10065000FFF6F6F6FFF6F6FFF6F6FFF6F6F6FFF60D
:10066000F2F2FFF2F2FFF2F2F2F2F2F2F2F2FFF243
:10067000F4F4F4F4F4F4F4F4F4F4F4FFF4F4F4F42F
:10068000F0F0F0F0F0F0F0F0F0F0F0F0F0F0F0F06A
:10069000FFFFFFFFFFFFFFFFFFFFFFFFFFFFFFFF6A
:1006A000F3FFF3F3F3FFF3F3F3FFFFFFF3F3F3F3DE
:1006B000F5FFF5F5F5F5F5F5F5F5F5F5F5F5FFF5D6
:1006C000F1F1F1F1FFFFFFFFFFF1F1FFFFFFF1F1AA
:1006D000FFF6F6F6FFF6F6FFF6F6F6FFF6F6F6FF8D
:1006E000FFFFF2F2F2FFFFFFFFFFF2F2F2F2FFF282
:1006F000F4F4F4F4F4F4F4F4F4F4FFFFFFFFFFF483
:10070000F0F0F0F0F0F0F0F0F0F0F0F0F0F0F0F0E9
:10071000FFFFFFFFFFFFFFFFFFFFFFFFFFFFFFFFE9
:10072000F3FFF3F3F3FFF3F3F3FFFFFFF3F3F3F35D
:10073000F5FFF5F5F5F5F5F5F5F5F5F5F5F5FFF555
:10074000F1F1F1F1FFFFFFFFFFF1F1FFFFFFF1F129
:10075000FFF6F6F6FFF6F6FFF6F6F6FFF6F6F6FF0C
:10076000FFFFF2F2F2FFFFFFFFFFF2F2F2F2FFF201
:10077000F4F4F4F4F4F4F4F4F4F4FFFFFFFFFFF402
:10078000F0F0F0F0F0F0F0F0F0F0F0F0F0F0F0F069
:10079000FFFFFFFFFFFFFFFFFFFFFFFFFFFFFFFF69
:1007A000F3F3F3F3F3F3F3F3F3F3F3F3F3F3F3F319
:1007B000F5F5F5F5F5F5F5F5F5F5F5F5F5F5F5F5E9
:1010A000F3FFF3F3F3FFF3F3F3FFFFFFF3F3F3FFC8
:1010B000F5F5F5FFF5F5F5F5F5F5F5F5F5FFFFFFB8
:1010C000FFFFF1F1FFF1F1F1F1F1F1FFFFFFF1F1BC
:1010D000FFF6F6F6FFF6F6FFF6F6F6FFF6F6F6FF83
:1010E000FFFFF2F2F2FFFFFFFFFFF2F2FFFFFFFF51
:1010F000FFF4F4F4F4F4F4F4F4F4F4FFFFFFF4F484
:10110000F0F0F0F0F0F0F0F0F0F0F0F0F0F0F0F0DF
:10111000FFFFFFFFFFFFFFFFFFFFFFFFFFFFFFFFDF
:10112000F3FFF3F3F3FFF3F3F3FFFFFFF3F3F3FF47
:10113000F5F5F5FFF5F5F5F5F5F5F5F5F5FFFFFF37
:10114000FFFFF1F1FFF1F1F1F1F1F1FFFFFFF1F13B
:10115000FFF6F6F6FFF6F6FFF6F6F6FFF6F6F6FF02
:10116000FFFFF2F2F2FFFFFFFFFFF2F2FFFFFFFFD0
:10117000FFF4F4F4F4F4F4F4F4F4F4FFFFFFF4F403
:10118000F0F0F0F0F0F0F0F0F0F0F0F0F0F0F0F05F
:10119000FFFFFFFFFFFFFFFFFFFFFFFFFFFFFFFF5F
:1011A000F3FFF3F3F3FFF3F3FFF3F3F3FFF3F3FFD3
:1011B000F5F5F5FFF5F5F5F5F5F5F5F5F5F5F5F5D5
:1011C000F1FFF1F1FFF1F1F1F1F1F1F1FFF1F1F1E5
:1011D000FFF6F6F6FFF6F6FFF6F6FFF6F6F6FFF682
:1011E000F2F2FFF2F2FFF2F2F2F2F2F2F2F2FFF2B8
:1011F000F4F4F4F4F4F4F4F4F4F4FFF4F4F4FFF499
:10120000F0F0F0F0F0F0F0F0F0F0F0F0F0F0F0F0DE
:10121000FFFFFFFFFFFFFFFFFFFFFFFFFFFFFFFFDE
:10122000F3FFF3F3F3FFF3F3FFF3F3F3FFF3F3FF52
:10123000F5F5F5FFF5F5F5F5F5F5F5F5F5F5F5F554
:10124000F1FFF1F1FFF1F1F1F1F1F1F1FFF1F1F164
:10125000FFF6F6F6FFF6F6FFF6F6FFF6F6F6FFF601
:10126000F2F2FFF2F2FFF2F2F2F2F2F2F2F2FFF237
:10127000F4F4F4F4F4F4F4F4F4F4FFF4F4F4FFF418
:10128000F0F0F0F0F0F0F0F0F0F0F0F0F0F0F0F05E
:10129000FFFFFFFFFFFFFFFFFFFFFFFFFFFFFFFF5E
:1012A000F3FFF3F3F3FFF3F3FFF3F3F3F3F3F3FFDE
:1012B000F5F5F5FFF5F5F5F5F5F5F5F5F5F5F5F5D4
:1012C000FFF1F1F1FFF1F1F1F1F1F1F1FFF1F1F1E4
:1012D000FFFFF6F6FFF6F6FFF6FFF6F6F6F6FFF678
:1012E000F2F2F2F2F2FFF2F2F2F2F2F2F2F2FFF2C4
:1012F000F4F4F4F4F4F4F4F4F4F4F4F4F4F4FFF4A3
:10130000F0F0F0F0F0F0F0F0F0F0F0F0F0F0F0F0DD
:10131000FFFFFFFFFFFFFFFFFFFFFFFFFFFFFFFFDD
:10132000F3FFF3F3F3FFF3F3FFF3F3F3F3F3F3FF5D
:10133000F5F5F5FFF5F5F5F5F5F5F5F5F5F5F5F553
:10134000FFF1F1F1FFF1F1F1F1F1F1F1FFF1F1F163
:10135000FFFFF6F6FFF6F6FFF6FFF6F6F6F6FFF6F7
:10136000F2F2F2F2F2FFF2F2F2F2F2F2F2F2FFF243
:10137000F4F4F4F4F4F4F4F4F4F4F4F4F4F4FFF422
:10138000F0F0F0F0F0F0F0F0F0F0F0F0F0F0F0F05D
:10139000FFFFFFFFFFFFFFFFFFFFFFFFFFFFFFFF5D
:1013A000F3FFFFFFFFFFF3F3F3FFFFFFF3F3F3FFA1
:1013B000F5F5F5FFF5F5FFFFFFFFFFF5F5F5F5FF97
:1013C000F1F1F1F1FFF1F1F1F1F1F1F1FFF1F1F1F1
:1013D000FFF6FFF6FFF6F6FFFFF6F6F6F6F6F6FF77
:1013E000FFFFF2F2F2FFFFFFFFF2F2F2F2F2FFF282
:1013F000F4F4F4F4F4F4F4F4F4F4F4F4F4FFF4F4A2
:10140000F0F0F0F0F0F0F0F0F0F0F0F0F0F0F0F0DC
:10141000FFFFFFFFFFFFFFFFFFFFFFFFFFFFFFFFDC
:10142000F3FFFFFFFFFFF3F3F3FFFFFFF3F3F3FF20
:10143000F5F5F5FFF5F5FFFFFFFFFFF5F5F5F5FF16
:10144000F1F1F1F1FFF1F1F1F1F1F1F1FFF1F1F170
:10145000FFF6FFF6FFF6F6FFFFF6F6F6F6F6F6FFF6
:10146000FFFFF2F2F2FFFFFFFFF2F2F2F2F2FFF201
:10147000F4F4F4F4F4F4F4F4F4F4F4F4F4FFF4F421
:10148000F0F0F0F0F0F0F0F0F0F0F0F0F0F0F0F05C
:10149000FFFFFFFFFFFFFFFFFFFFFFFFFFFFFFFF5C
:1014A000F3FFF3F3F3FFF3F3F3F3F3F3FFF3F3FFDC
:1014B000F5F5F5FFF5F5F5F5F5F5F5F5F5F5FFF5C8
:1014C000F1F1F1F1FFF1F1F1F1F1F1F1FFF1F1F1F0
:1014D000FFF6F6FFFFF6F6FFF6FFF6F6F6F6F6F67F
:1014E000F2F2FFF2F2FFF2F2F2F2F2F2F2F2FFF2B5
:1014F000F4F4F4F4F4F4F4F4F4F4F4F4FFF4F4F4A1
:10150000F0F0F0F0F0F0F0F0F0F0F0F0F0F0F0F0DB
:10151000FFFFFFFFFFFFFFFFFFFFFFFFFFFFFFFFDB
:10152000F3FFF3F3F3FFF3F3F3F3F3F3FFF3F3FF5B
:10153000F5F5F5FFF5F5F5F5F5F5F5F5F5F5FFF547
:10154000F1F1F1F1FFF1F1F1F1F1F1F1FFF1F1F16F
:10155000FFF6F6FFFFF6F6FFF6FFF6F6F6F6F6F6FE
:10156000F2F2FFF2F2FFF2F2F2F2F2F2F2F2FFF234
:10157000F4F4F4F4F4F4F4F4F4F4F4F4FFF4F4F420
:10158000F0F0F0F0F0F0F0F0F0F0F0F0F0F0F0F05B
:10159000FFFFFFFFFFFFFFFFFFFFFFFFFFFFFFFF5B
:1015A000F3FFF3F3F3FFF3F3FFF3F3F3FFF3F3F3DB
:1015B000FFF5FFF5F5F5F5F5F5F5F5F5F5F5FFF5BD
:1015C000F1F1F1F1FFF1F1F1F1F1F1F1FFF1F1F1EF
:1015D000FFF6F6F6FFF6F6FFF6F6FFF6F6F6FFF67E
:1015E000F2F2FFF2F2FFF2F2F2F2F2F2F2F2FFF2B4
:1015F000F4F4F4F4F4F4F4F4F4F4F4FFF4F4F4F4A0
:10160000F0F0F0F0F0F0F0F0F0F0F0F0F0F0F0F0DA
:10161000FFFFFFFFFFFFFFFFFFFFFFFFFFFFFFFFDA
:10162000F3FFF3F3F3FFF3F3FFF3F3F3FFF3F3F35A
:10163000FFF5FFF5F5F5F5F5F5F5F5F5F5F5FFF53C
:10164000F1F1F1F1FFF1F1F1F1F1F1F1FFF1F1F16E
:10165000FFF6F6F6FFF6F6FFF6F6FFF6F6F6FFF6FD
:10166000F2F2FFF2F2FFF2F2F2F2F2F2F2F2FFF233
:10167000F4F4F4F4F4F4F4F4F4F4F4FFF4F4F4F41F
:10168000F0F0F0F0F0F0F0F0F0F0F0F0F0F0F0F05A
:10169000FFFFFFFFFFFFFFFFFFFFFFFFFFFFFFFF5A
:1016A000F3FFF3F3F3FFF3F3F3FFFFFFF3F3F3F3CE
:1016B000F5FFF5F5F5F5F5F5F5F5F5F5F5F5FFF5C6
:1016C000F1F1F1F1FFFFFFFFFFF1F1FFFFFFF1F19A
:1016D000FFF6F6F6FFF6F6FFF6F6F6FFF6F6F6FF7D
:1016E000FFFFF2F2F2FFFFFFFFFFF2F2F2F2FFF272
:1016F000F4F4F4F4F4F4F4F4F4F4FFFFFFFFFFF473
:10170000F0F0F0F0F0F0F0F0F0F0F0F0F0F0F0F0D9
:10171000FFFFFFFFFFFFFFFFFFFFFFFFFFFFFFFFD9
:10172000F3FFF3F3F3FFF3F3F3FFFFFFF3F3F3F34D
:10173000F5FFF5F5F5F5F5F5F5F5F5F5F5F5FFF545
:10174000F1F1F1F1FFFFFFFFFFF1F1FFFFFFF1F119
:10175000FFF6F6F6FFF6F6FFF6F6F6FFF6F6F6FFFC
:10176000FFFFF2F2F2FFFFFFFFFFF2F2F2F2FFF2F1
:10177000F4F4F4F4F4F4F4F4F4F4FFFFFFFFFFF4F2
:10178000F0F0F0F0F0F0F0F0F0F0F0F0F0F0F0F059
:10179000F0F0F0F0F0F0F0F0F0F0F0F0F0F0F0F049
:1017A000F0F0F0F0F0F0F0F0F0F0F0F0F0F0F0F039
:1017B000F0F0F0F0F0F0F0F0F0F0F0F0F0F0F0F029
:1017C000F0F0F0F0F0F0F0F0F0F0F0F0F0F0F0F019
:1017D000F0F0F0F0F0F0F0F0FFF0F0F0F0F0F0F0FA
:1017E000F0F0F0F0F0F0F0F0F0F0F0F0F0F0F0F0F9
:1017F000FFFFFFFFFFFFFFFFFFFFFFFFFFFFFFFFF9
:10180000F0F0F0F0F0F0F0F0F0F0F0F0F0F0F0F0D8
:10181000F0F0F0F0F0F0F0F0F0F0F0F0F0F0F0F0C8
:00000001FF
